:020000022000DC
:1070000000000220757302005D7302005F730200CE
:1070100061730200637302006573020000000000E8
:107020000000000000000000000000006773020084
:1070300069730200000000006B7302006D730200B0
:107040006F7302006F730200FDA902006F730200EC
:107050006F7302006F73020081A802006F73020059
:107060006F7302006F7302006F7302006F73020090
:107070006F7302006F7302006F7302006F73020080
:107080006F7302000D8502006F7302006F730200C0
:107090006F7302006F7302009D1403006F73020090
:1070A0006F7302006F7302006F7302006F73020050
:1070B00085A402006F7302000000000000000000C1
:1070C0006F7302006F7302006F7302006F73020030
:1070D0006F7302006F7302006F7302006F73020020
:1070E0006F730200000000000000000000000000BC
:1070F000000000006F730200000000006F730200C8
:10710000000000000000000000000000000000007F
:10711000000000000000000000000000000000006F
:10712000000000000000000000000000000000005F
:10713000000000000000000000000000000000004F
:10714000000000000000000000000000000000003F
:10715000000000000000000000000000000000002F
:10716000000000000000000000000000000000001F
:10717000000000000000000000000000000000000F
:1071800000000000000000000000000000000000FF
:1071900000000000000000000000000000000000EF
:1071A00000000000000000000000000000000000DF
:1071B00000000000000000000000000000000000CF
:1071C00000000000000000000000000000000000BF
:1071D00000000000000000000000000000000000AF
:1071E000000000000000000000000000000000009F
:1071F000000000000000000000000000000000008F
:10720000354936480A1A02D0072291438D4634493F
:1072100034480A1A06D00722914381F309880222D2
:1072200082F3148830483149314A00F044F831483B
:107230003149324A00F03FF831483249324A00F0D1
:107240003AF832483249334A00F035F83248334987
:10725000334A00F030F833483349344A00F02BF811
:1072600033483449344A00F026F83448344900227F
:1072700000F02CF833483449002200F027F8334856
:107280003349091A082902DB002202604160314AB1
:1072900090471F481F49884205D00268043003B454
:1072A000904703BCF7E700208646EC46002000210B
:1072B000294A9047FEE7884207D0521A05D0037842
:1072C00001300B700131013AF9D17047884202D088
:1072D00002700130FAE770470000022000F8012038
:1072E00000000220000002200C4C03007422002049
:1072F000B4240020D0730200D0730200782303006E
:107300000C4C03007422002074220020102503007E
:10731000102503001025030010250300102503008D
:107320001025030010250300102503000A4C03005C
:107330004C4E0300B4240020B4240020B4240020C8
:10734000FF3D0020003E0020003E0020003E0020C7
:10735000004600209D73020029AB0200FEE7FEE715
:10736000FEE7FEE7FEE7FEE7FEE7FEE7FEE7FEE7F5
:1073700000F002B8FFF7FCBF0F484FF00701884349
:1073800085460E4880470E48016841F4700101604F
:10739000BFF34F8FBFF36F8FFFF732BF09480A4922
:1073A0000A4A884207D0521A05D0037801300B7080
:1073B0000131013AF9D170470000022015A5020001
:1073C00088ED00E0FC2403006022002074220020ED
:1073D0007047000007B5044B0093044A402300F0B7
:1073E00032F803B05DF804FBF1730200B52400200D
:1073F0002DE9F84388461446B2B10F4B0F4E0325D2
:10740000002743F00109224608EB0701002004F0A1
:107410004DFA0744241A48B933782BB14FF47A4017
:10742000C847013D02D13570BDE8F88301233370B0
:10743000002CE8D1F8E700BF10250300B424002099
:10744000704704F063BAF0B595B01D46164608467D
:107450000C4602F0A9FE1A9B0D93CDE908650025A4
:107460002B46082205A920460A958DF82C500C952C
:1074700002F0B6FE079B0293069B03939DF814301F
:107480008DF8115003F00302012A1DD1BDF814201C
:10749000059DC3F3C203C2F383168DF81030B2000A
:1074A00008230EA9204602F09BFEC5F3952508ABE4
:1074B0000093324602AB0EA9284600F049FB204655
:1074C00002F076FE15B0F0BD022AF8D1BDF81650D4
:1074D000C3F3C203C5F389158DF810300827082DB2
:1074E0002E4628BF08263B4632460EA9204602F00B
:1074F00077FEAD1B08AB02AA31460EA8374400F058
:107500008BFB002DEBD1DAE708B5FFF79AFF0448B3
:10751000042100F087FA034B01225A7108BD00BF15
:10752000EC24030074220020037813F0040216D028
:1075300003F00303012B03D0022B09D00120704775
:107540000A6800880232C0F3831002440A60F5E73B
:107550000B684288023303EB92130B60EEE7104690
:10756000704700002DE9F04FDFF81CA187B00F46EF
:1075700000230446861C0DF1070015468DF80730E0
:1075800000F056FEDAF804203A60DAF8083003F525
:1075900080739B1A0AF21C470AF583690AF21448A1
:1075A000B3421AD30020002D69D004F00F039B01D1
:1075B00043F0050363F30F00DAF80430DAB2033264
:1075C00033444AF822009DF80700CAF8043000F05E
:1075D00053FE012007B0BDE8F08F0121384602F0CC
:1075E0004FF8484602F067F8404602F064F8DAF8CF
:1075F00008000290C0B203300AEB800002A9FFF736
:1076000093FF029B30BBDAB20AEB8202D16803918E
:107610009A1C0133DBB20AEB83030292D3F80CB05D
:1076200001F00303012B22D0022B15D083464046E4
:1076300002F044F810B1029BCAF8083059463846A7
:1076400002F01EF8DAF80830DAF8042003F5807347
:107650009B1AA5E7D8B2CEE7BDF80E30C3F3891365
:1076600003334FEA1B4B02EB93030293DFE7BDF8B2
:107670000C30C3F383134FEA1B4B1344F5E7A40507
:1076800044F0060098E700BFC8250020064B0748D5
:1076900010B500221A7002F040FD044610B90448EB
:1076A00002F052FE204610BDC82500200024030031
:1076B0004C25030030B50A4C71B10A4A0A49121B25
:1076C000D20800239A4201D1002030BD31F8235066
:1076D000854202D00133F5E7034654F83300F4E75E
:1076E00014240300EC24030074220020094B013908
:1076F00003EBC000032909D8DFE801F00A02040601
:107700000420704700797047407970470020704727
:107710000220704714240300034BD3E90130C31A3D
:1077200058425841704700BFC82500202DE9F0415C
:1077300086B0FFF7F1FF0546002840F0ED80774C5A
:10774000C4F81804BFF34F8FA3680293DBB203336E
:1077500004EB830002A9FFF7E7FE029B18B1D4F8FF
:107760001824002A5AD0DAB2991C013304EB8202A1
:10777000DBB204EB8303D268DB68049302F00303FB
:10778000022B0392029154D1BDF80E306448C3F32A
:107790008917502F3E4628BF502606F1080166F390
:1077A0008F13C1F30901ADF80E3002F0CEFC05468F
:1077B000002800F09C8002F0F7FC0023082203A9B7
:1077C000284602F003FD0299CB43DBB20133C9B274
:1077D0000331B6EB830F4FEA830204EB810125D915
:1077E0005FFA82F80823A6EB0806284602F0EEFCB2
:1077F000F6B208F108034B4903F0FC033246284671
:1078000002F0E4FC029B033703EB97070297D4F8DE
:107810001834002B43D1D4F8106453E062689A42C4
:1078200094D8A260284606B0BDE8F081082332460D
:10783000E5E7012B5BD1BDF80C303948C3F3831168
:10784000062928BF062161F38913023101F00F01D7
:107850008900ADF80C3002F078FC0546002846D0CF
:1078600002F0A2FC0023082203A9284602F0AEFC85
:107870000026BDF80C20C2F38312B300964203F138
:107880000803C4D202994A1CC9B20331029204EB24
:1078900081010422284602F099FC0136E9E72846D6
:1078A00002F086FCFFF738FF80F00100C5B2B9E7AF
:1078B000F3685B7923B1336829461B6830469847E3
:1078C000F3681E68002EF3D1284602F071FC0DF11A
:1078D00007008DF8076000F0ABFCD4F818340BB942
:1078E000029BA3609DF8070000F0C6FCDAE7D4F81D
:1078F000104454B90C4B0D480D49C01AC00800047F
:1079000040F0020000F05CF8CCE7236820469B685A
:107910009847E3681C68ECE7002583E7C82500204A
:1079200000240300D4250020142403004424030071
:10793000342503002DE9F34704460E46924601A97B
:10794000012218469946FFF70DFE1B4F10B3019D0B
:107950004FF00008AA1CC84508EB020123D11748C4
:10796000002101F046FE80F31000000440EA1440BC
:10797000E4006B1C04F03804DBB2EDB244F0010407
:1079800007EB8303033544EA881444EA8624D8606D
:1079900047F825403B781BB1FFF7C8FE0028FBD114
:1079A00002B0BDE8F087C9B207EB81015AF8283070
:1079B000CB6008F10108CEE7C8250020E4290020AB
:1079C00000231A46FFF7B6BF07B50123019201AAAB
:1079D000FFF7B0FF03B05DF804FB07B5CDE9002366
:1079E00002236A46FFF7A6FF03B05DF804FB1FB54C
:1079F000CDE90123069B039301AA0323FFF79AFF16
:107A000005B05DF804FB1FB5CDE90023069B02938A
:107A1000079B03936A460423FFF78CFF05B05DF8CC
:107A200004FB000030B50F4CD4F8102403460020AE
:107A3000114631B9D96808714AB9C4F810340A60DE
:107A400030BDC9680D79854206D00968F1E7D26872
:107A500014680C601360F3E701300A28E8D14FF096
:107A6000FF30EDE7C825002038B5084B0125D3F8D5
:107A700010441D7004B938BDE3685D712368204669
:107A80005B689847E3681C68F4E700BFC8250020DE
:107A900030B5C38885B004460D4633B1144A009210
:107AA0001449154A284601F06CFE217A05291DD09B
:107AB000637A4BB1A088FFF719FE104B104953F8B9
:107AC0002020284601F05DFE227A0E4BA08853F854
:107AD000222003920021FFF7EDFD039A0A49034695
:107AE000284605B0BDE8304001F04BBE05B030BDC2
:107AF000782503006025030058250300E4250300D2
:107B0000DF3E0300082603007D25030007B503467A
:107B10000846197A052911D05B7A2BB1094A0A491E
:107B2000019001F02EFE01980849019001F029FE14
:107B3000019803B05DF804EB01F018BE002AF8D0FC
:107B4000F2E700BF78250300DF3E03007525030040
:107B50002DE9F04385B01F460C9D002395F80C904D
:107B60002B7306460C46904629463846FFF790FF91
:107B7000B8F1060F09D8DFE808F00412181F2833FF
:107B800040003146284601F0FCFD002229463846D7
:107B9000FFF7BCFF85F80C9005B0BDE8F0832268C4
:107BA0003146284601F0EDFDEFE7D4E900233146E8
:107BB000284601F0E6FDE8E7A36800933146D4E9E2
:107BC0000023284601F0DDFDDFE7E3680193A368A9
:107BD00000933146D4E90023284601F0D2FDD4E7D2
:107BE00023690293E3680193A36800933146D4E9C3
:107BF0000023284601F0C5FDC7E7636903932369A5
:107C00000293E3680193A36800933146D4E900230B
:107C1000284601F0B6FDB8E708292DE9F74F804660
:107C20000E4617461C463DD800251B7B2573214672
:107C300010460193FFF72CFFDFF88CA0DFF88CB023
:107C4000AE4232D918F805205946204601F099FD78
:107C50000135082DF4D11B49DFF874A0DFF874B0AA
:107C6000204601F08EFD4FF000094E4524D918F84A
:107C700009507E2D1ED828460AF094FA002814BF19
:107C80002A462E225946204601F07BFD09F10109C2
:107C9000B9F1080FE9D1012221463846FFF736FF36
:107CA000019B237303B0BDE8F08F5146204601F0DD
:107CB00068FDCDE72E22E5E75146204601F061FD43
:107CC000E4E700BF912503008D250300872503000D
:107CD0008F250300932503001FB50021039001AAFF
:107CE00044F20100CDE9011100F004F805B05DF89F
:107CF00004FB000038B572B6FFF7B6FEFFF716FDBD
:107D00000028FBD1104B114C114D1249E41AE40824
:107D1000240444F00100FFF753FED5F8F030DB07F0
:107D200000D500BE0C4944F00200FFF749FEBFF346
:107D30004F8FEA68094B02F4E0621343EB60BFF334
:107D40004F8F00BFFDE700BF14240300442403004D
:107D500000ED00E027260300332603000400FA05A7
:107D60004B1C30B5DB00044612F003009BB20DD172
:107D7000074D2A601A44074B1A60074B1870074BCF
:107D80001870074B1C80074B198030BD0720FCE79B
:107D9000882A0020842A0020802A0020902A00209F
:107DA0008C2A00208E2A00202DE9F743DFF8BC80C2
:107DB000B8F800308B4206460D46174647D30024DC
:107DC0000DF107008DF8074000F032FA224B234AEC
:107DD00023481B78008892F800C084455FFA8CF134
:107DE00038BF4C1CDBB238BFE4B2A34228D01478B1
:107DF0001178CBB2884286BF0133DBB20023137007
:107E00009DF8070000F038FA4FF6FF739C4220D02F
:107E1000144B1B6843F8347003EBC4099EB195B151
:107E2000114BB8F800001B682A46314604FB0030AD
:107E30000AF0F4F9A9F80450002003B0BDE8F0837B
:107E40004FF6FF74DCE70020A9F80400F5E70920ED
:107E5000F3E70420F1E700BF902A0020802A0020E9
:107E60008E2A0020882A0020842A00208C2A0020C4
:107E700070B5104C104D22782B789A4200D170BD0D
:107E80000E480F4A2378126806880E4802EBC30199
:107E9000006852F83320898803FB060090470A499E
:107EA00022780988D3B2914286BF0133DBB2002326
:107EB0002370E0E7902A0020802A00208C2A0020EE
:107EC000882A0020842A00208E2A002010B5D0E9BC
:107ED0000243D1E90202A04272EB03032CBF01204E
:107EE000002010BDD0E900301847000008B50A484E
:107EF00000F0F5FA094AD2E90031C018084BD3E97D
:107F0000002341F10001904271EB030303D210F111
:107F1000807041F1000108BD7C220020982A0020D9
:107F2000E02D002037B505460C460A4801A901F0AE
:107F300094FA60B10570446001A9064801F0B7FAEF
:107F400018B1054800F0D0FA002003B030BD04207D
:107F5000FBE700BFCC2D00207C2200201C4B37B556
:107F60001D78044675B380B3037F03F0FF054BB360
:107F7000FFF7BCFFD4E90223904271EB03031BD34C
:107F8000236903B9237763690093124AA3690193B4
:107F900008216846FFF708FF08B1FFF79DFE226938
:107FA0007AB1237F03F0FF0563B1D4E902319B1856
:107FB00041F10001C4E902310748214602F0E3F92A
:107FC00000E01546284603B030BD0546FAE700BF7D
:107FD000A02A0020E57E02005026030013B5114BB5
:107FE000114918680190082310484FF44A7201F0B3
:107FF000FFF9044698B90E4A0E4801A900F060F94D
:10800000044660B90B48012100F04CFA01230A4AEA
:108010000848194600F0AEF9084B01221A702046B4
:1080200002B010BD4A260300A42A0020CC2D002057
:10803000A18002007C220020FFFF7F00A02A0020F8
:108040003AB103685A614A1E5142514119610020F8
:1080500070470720704738B5037F04460D4683B943
:108060008261FFF743FF2369281841F10001C4E949
:10807000020103B1256121460020BDE83840FFF729
:1080800051BF002038BD0023014603770120FFF7D0
:1080900049BF0000014800F022BA00BF7C22002046
:1080A0002DE9F347064600F005FA40B1584AD2E9F7
:1080B000003113F1807341F10001C2E90031002168
:1080C000304600F006FA38B1524C236823B12068DC
:1080D000FFF744FF002323600121304600F0F9F947
:1080E00020B1FFF703FF4C4BC3E900014B48494D5A
:1080F0004B4C4C4F01A901F0EAF9002842D1DFF8BE
:108100002081444CDFF82491404602F052F9236864
:10811000002872D07BB12368D0E90252D3E9021360
:108120008D4272EB03032AD223681B7F1BB12168A7
:10813000404602F028F9404602F035F9D0E9027ACB
:108140000546FFF7D3FE381A6AEB010A01287AF1D7
:10815000000345DBB0F5350F40D3FFF79BFF324AF4
:1081600002444FF496030021484600F023F900280A
:108170003ED1236813B9304600F0F4F8256002B010
:10818000BDE8F0870378012B1DD0022B09D14FF0F9
:108190000008204602F007F9002836D080F81C803D
:1081A000F7E73BB941680B7F23B901230B772046E2
:1081B00002F0E9F801A9194801F0B4F901A917483A
:1081C00001F085F999E741682B68994202D10023B3
:1081D0002B60EFE7204602F0EFF8EBE7AA68C0E774
:1081E0000021484600F06BF92846FFF7B7FE01E092
:1081F0000D28F9D00023236086E7002BBFD130463D
:1082000002B0BDE8F04700F0B1B801233B70D1E700
:10821000982A0020E82D0020E02D0020CC2D002001
:1082200050260300A02A0020FFFFB4007C2200207B
:1082300070B5EFF3108672B60C4A946801239CB9AE
:1082400093600B4B0B4DD3F8801029401160C3F89D
:108250008050D3F8841051604FF0FF32C3F884206F
:10826000047006B962B670BD0370FAE7EC2D002009
:1082700000E100E0FC06FFBD084B9A6810B55AB15A
:1082800050B9EFF3108172B6054A1C6814605C683F
:108290005460986001B962B610BD00BFEC2D00209B
:1082A00000E100E0435882B03BB100234350435803
:1082B0000193019B012002B070471846FBE70000C4
:1082C000F8B5204B4479204E43F824201F4A204B18
:1082D00006EBC4049B1A2279DB081B0432B143F07D
:1082E00002001C49FFF76CFB0820F8BD02680C88EF
:1082F000C2F8084590F904508A7804795201002D9B
:10830000D2B219DB14494F1987F8002301226D09F5
:1083100004F01F0402FA04F441F82540427906EB08
:10832000C201012446F832000C7143F003000B49EE
:10833000FFF746FB0020D8E7094904F00F040A556F
:10834000ECE700BF002E0020F82D002014240300CD
:10835000542403005C26030000E100E07E260300B5
:1083600014ED00E0036801221A60704703680122DF
:108370005A60704773B501F15005AD000068ADB2A9
:108380004FF480348C400026C0F80843C0F84843BE
:10839000465101F5A8714559019522F07F42019D92
:1083A00040F82120C0F844430BB1C0F8044302B0A8
:1083B00070BD00002DE9F74F0D4622F07F440268A2
:1083C0004FF4803705F150068F408046B60002EB2F
:1083D0008500C2F84873B6B2C2F80873D2F8041523
:1083E00099464FF0000BD0F84035C0F8401542F8E0
:1083F00006B05B1A9259009223F07F43012B009A3A
:108400004FEA850A0CD1264B4FF4806043F00103FC
:108410009847D8F8003043F806B09B590193019B68
:10842000D8F80010D1F80465C1F84473A31B23F0F9
:108430007F43012B1CD11A4B05F5A875013443F07D
:10844000010341F825404FF480609847D8F8003088
:10845000D3F804359E4209D1D8F800300020C3F883
:108460004473C3F8047303B0BDE8F08F0D20FAE73E
:108470008A44C9F1FF13CAF84045D1F80405221A0D
:10848000013A22F07F4203F57F439342EED3002A64
:10849000E2D10134CAF84045D1F804359842DAE710
:1084A0009026030003680222C3F8442309B1C3F8ED
:1084B0000423704700684FF48271FFF7F3BE4FF456
:1084C000803303FA01F10368C3F84813C3F80813B3
:1084D000704750318900006889B2FFF7E3BE036836
:1084E000D3F804057047000090F90430002B09DB35
:1084F0005A09012103F01F0301FA03F34032024934
:1085000041F82230704700BF00E100E0024B034A0F
:108510001B681068184700BF002E0020F82D0020AF
:1085200070B5064D0646002455F8043B0BB13046A5
:1085300098470134042CF7D170BD00BF102E0020E5
:108540004388033300EB830399420BD382884FF6B1
:10855000FF739A4208D0038833B18068431C5842A5
:10856000584170470220704701207047033080B2A5
:1085700040F2FE33984230B51FD8134B1A783AB9FF
:108580001C895D892C440444A4B2B4F5806F0AD9D7
:108590001A7DAAB99A8BDC8B2244024492B2B2F5BE
:1085A000806F0DD801220A801446142202FB043386
:1085B0005A8910445881002030BD48F20860FBE71A
:1085C00048F20660F8E700BF442E00200B4A0C4931
:1085D0005388142000FB0311CB6833B90420496889
:1085E00010700122074801F061BB07490523137091
:1085F00002238B80012209680023F3E7282E002044
:10860000442E0020602200200C2F002007B50023FC
:1086100005490093054A09680548082301F0ACFAAA
:1086200003B05DF804FB00BF0C2F0020A42603005C
:108630006022002007B5002301460093034A044846
:10864000082301F099FA03B05DF804FB9C260300AF
:108650006022002013B500230C4600930146084A0F
:108660000848042301F088FA38B9074B142101FBAC
:10867000043101230B7402B010BD48F20D60FAE71B
:108680009826030060220020442E002037B50A48B7
:108690000A4B42689C881968538803250333057088
:1086A0009BB2002000909B0001EB8401044801F084
:1086B00063FA03B030BD00BF282E00200C2F00202D
:1086C0006022002010B50146044800F0C6FE1C22BE
:1086D0000446002109F0CBFD204610BDF82E0020F5
:1086E00068B10268084B9A4209D14068074B98422A
:1086F00007D00133984214BF0320012070470320A4
:1087000070470020704700BFDEC0ADDEFE011EF1E5
:108710002DE9F0410D460223154F2B80164600F53A
:10872000805100F108044FF001088C420ED22368FA
:1087300001330BD02046FFF703FF48B10EB186F896
:108740000080022809D14FF480632B80BDE8F081BE
:10875000A3683A68934200D93B602B886288033350
:1087600013442B806388033304EB8304DDE700BFED
:108770003C2E002038B5144B14220D4602FB00306D
:108780002B68446804F58051A3B15C88033403EB83
:1087900084048C4215D22368013312D02046FFF79F
:1087A000CFFE012808D002280BD00028F1D12C6080
:1087B000012038BD0834ECE76388033304EB8304FD
:1087C000E7E70020F5E700BF442E0020426873B5BC
:1087D00004460D466AB3234BD9688A4229D31B69E4
:1087E0009A4226D812F0030323D11F490089098930
:1087F00088421ED12068916888421AD11B4841687E
:108800008A4203D901F580518A420DD381698A4297
:108810000CD901F580518A4208D201222A80B3FA8C
:1088200083F0400902B070BD1A46F7E748F20963C9
:10883000F5E700262E800196288801A9FFF79AFF08
:1088400030B92B8801339BB2012B2B80F3D9E9E798
:10885000019B226899689142EED16360024B1B89AB
:108860002381DFE760220020282E0020442E0020F4
:108870002DE9F8431C461D4B1B7806460F4615464E
:1088800073B382B37CB3DFF86C804FF01409A38814
:10889000012B02D948F2096020E009FB03F318F824
:1088A00003302BB9A0882146FFF764FF20B9206070
:1088B000A3880133A380EAE723681EB19988328830
:1088C0009142EFD11FB119883A889142EAD19A6852
:1088D000C5E90023064B1B892B810020BDE8F883E6
:1088E00048F20160FAE748F20460F7E7202E002022
:1088F000282E0020442E002008B5074B5888191D4B
:10890000FFF738FF18B1BDE80840FFF7BFBEBDE86C
:108910000840FFF75BBE00BF282E00202DE9F0477E
:10892000A24FDFF8AC8288B006463B6823B9A04866
:10893000414600F0CCFD38603D6829784B1E052B80
:1089400007D8DFE813F020007A007A000C010C0150
:10895000630148F20E641422002103A809F087FC89
:1089600041F61D539C4208BF00243B6804941A78CA
:10897000023A042A00F20282DFE812F0E301EF017A
:108980001102190220022EB18A4B00225A604FF4C4
:108990000644E0E72B79032B1CD8DFE803F0140230
:1089A0002A35854A1378022B1AD0137D022B4FF0FB
:1089B000010317D114214B43D1180020D05448682B
:1089C000FFF738FE03E001232B71FFF71FFE00289D
:1089D00000F0BF80774B00225A6048F20D64BAE77E
:1089E0000023E7E7734A13700023536041F61D54D8
:1089F000B1E772497248002302222B718A8009680C
:108A0000012201F053F9E2E76C4C00262E71206838
:108A1000FFF710FE6B4BDFF8A0C15B8825681422BE
:108A200053430CEB03020CF8036051685560A588B2
:108A3000158102222160A280C9E7B5F814A0AA7DA1
:108A4000DFF87491AEB1022AEB8806D9142101FB3C
:108A50000A91DA1C088902440A81142202FB0A994D
:108A6000C3F57F43B9F80A20FD331344A9F80A304F
:108A70008DE7142303FB0A9318895C6804EB8004D8
:108A8000062A69D8DFE802F0274E36441D5A040052
:108A900041F61D54AA7DEB88022A06D9142101FB58
:108AA0000A91DA1C088902440A81142202FB0A99FD
:108AB000C3F57F43B9F80A20FD331344A9F80A30FF
:108AC00049E74148414900234360AB690360FFF730
:108AD0007DFE00285BD00223AB75002300930423A6
:108AE000EA182146364801F047F8002831D048F20C
:108AF0000D64CFE72B69002B14BF03230123AB7553
:108B00000023009305F10C02042304F10801E9E7B6
:108B10000123AB750022EB8800922A699B0004F1C7
:108B20000C01DFE703290CBF05230623AB750023E7
:108B30000093042305F10802E118D3E70623AB757F
:108B4000224B1988204B5868FFF784FD0446002803
:108B5000A0D108B0BDE8F08748F20E649AE7002E75
:108B60007FF415AF2B79012B34D0022B3FF43EAFAD
:108B7000002B7FF4EEAE02232B710DF10A01EB689E
:108B8000039303A8CDE90466FFF720FE10B948F26D
:108B90000964E0E60498BDF80A108388EB80038836
:108BA0002B81FFF757FD044629E000BF402E00202F
:108BB000F82E0020202E0020442E00200C2F002014
:108BC00060220020282E0020042E0020182F0020D4
:108BD000382E0020DFF8009203AA4B463146A81D2C
:108BE000FFF746FE044670B9B9F804100498FFF781
:108BF00031FD044648F209639C423FF4F7AE002C75
:108C00007FF4A9AEA5E7C9E90066F3E7002E7FF47B
:108C1000BEAE6C4B1A7BBAB11E731A78013A062AA3
:108C20003FF697AE01A151F822F000BFD78C0200A9
:108C3000FD8C02001B8D0200218D02005389020071
:108C4000278D0200398D02001A78072AE5D801A184
:108C500051F822F0758C02001B8C02001B8C020064
:108C60009B8C0200AF8C0200D38C0200D38C0200DC
:108C7000978C02001A89544901321A8100225A80C5
:108C80001A730A78B2FA82F252099A720A7DB2FA1B
:108C900082F25209DA72012207E04C4958688A8848
:108CA0004088033202448A8002221A70B5E75C8849
:108CB000454A4649142505FB04220868546850605B
:108CC0008888108102200C6088800021117406229F
:108CD000EBE70722E9E79A7A32B9DA7A8AB9002211
:108CE0001A705A805A6081E6374900229A72CA681F
:108CF000002AF2D1097C0029EFD05A80FFF7FCFD51
:108D000051E70022DA72304A116A0029E7D192F85D
:108D10002420002AE3D00122EFE7FFF7B7FC42E767
:108D2000FFF754FC3FE75A88274B142101FB02331D
:108D30005868FFF77FFC36E700225A60FFF766FCB1
:108D400031E701228DF80C201A89ADF818209A8895
:108D5000DB68ADF81A20059310E002228DF80C2094
:108D60001A89ADF818209A88ADF81A20DA689B7D28
:108D700005929A1F534253418DF81C3003A8FFF708
:108D8000CFFB0026414612483E6000F0CBFB114865
:108D9000012100F081FC00287FF4C7ADD9E6032251
:108DA0008DF80C20DA88ADF818201A89D0E7042253
:108DB0008DF80C20DB88ADF81830DFE705238DF83F
:108DC0000C30DBE7282E0020442E00200C2F002042
:108DD000F82E0020082F00201C2F00204068FFF7ED
:108DE0009DBD000008B50548012100F03DFC18B903
:108DF000BDE80840FFF792BD08BD00BF082F002066
:108E00002DE9F3419846374B1B7806460D46002B5B
:108E10005CD000295DD009884FF6FF7399425BD082
:108E20006B88002B58D06B689B0758D14AB92F89A3
:108E30000DF102013846FFF799FB30B102B0BDE8F1
:108E4000F08113885788ADF8023001A8FFF73AFC8B
:108E5000044660B9BDF80220234B142101FB023304
:108E600058890338C01B588148F20760E6E780F84C
:108E7000008000238375BDF8023083826B68036134
:108E800001211A4800F0FCFB2B882381B8F1030F65
:108E90006B88A38004BF0423A3754FF0000508BFAF
:108EA0003368E06008BFA3611148E780658101A9CC
:108EB00000F0FDFA36B1E36833600E4B75601B8934
:108EC000B5723381FFF78EFF0020B7E748F20160EB
:108ED000B4E748F20460B1E748F20360AEE748F255
:108EE0000260ABE7202E0020442E00203C2E002004
:108EF000F82E0020282E002008B5034607480268F7
:108F0000042A08D00168064A42F82130012100F005
:108F1000B7FB002008BD48F20B60FBE7142F0020D0
:108F2000102E00202DE9F04F89B01422002103A853
:108F300009F09DF97A4B1B7803F0FF0B3BB103A8B6
:108F4000FFF7EEFA0027384609B0BDE8F08F744B02
:108F5000181D00F0ADFB0028F4D1DBF8F83FDFF876
:108F6000E0A15C1C08BF4FF010234FF0805208BFF7
:108F70005B6911695269581C08BF02FB01F3CAF80A
:108F800010306849A3F5405300225046CAF80C300F
:108F900000F0C0FD07460028D5D11C236249634874
:108FA000DFF8A0918C2200F023FA0323B8463D4657
:108FB00001933C46DAF80C6046443046FFF790FBDC
:108FC000012862D0032817D000283DD158494FF01E
:108FD000140C0CFB04FC01EB0C0201F80C005660B5
:108FE0000CF110020CF1080C0A4430466144FFF702
:108FF0008FFB45F0020545E03268531C02D04D4B13
:109000009A4234D1321D06F58051106801302ED1BC
:1090100004329142F9D1D9F800203AB90222C9F8B4
:109020000060A9F804204FF0010B0BE0142262430A
:109030003F4B0220991898543F4A4E6054800134A7
:109040000881A4B245F0010508F58058B8F5405FE5
:10905000B0D1019B012B98BF0025EDB2022D03D0AA
:10906000062D32D0002D39D148F20A676BE7019BFB
:109070002F495A1E93B21422624388180193466006
:10908000032088540134A4B2DEE7BBF1000F0DD0F9
:10909000274B14226243991802209854D9F80020D3
:1090A0004A60254A088154800134A4B20022234931
:1090B000C9F800603046FFF72BFBB9F80420022AFC
:1090C0000CBF042208221543BEE7154A0123137082
:1090D00003A800235360FFF723FA34E702A8FFF741
:1090E000F1FAC8B10123013D03700A2D09D8DFE868
:1090F00005F006080608070807080F110F000023EF
:10910000037102A9094800F0D2F9FFF76BFE1AE7D4
:109110000323F5E70223F3E748F2076713E700BFED
:10912000202E0020982803006C2E0020F82E00200E
:10913000442E0020DEC0ADDE282E0020102F00209F
:10914000602200200C2F002073B50D460446C8B1E4
:10915000C1B10DF10601FFF739FBB0B1BDF8063022
:109160000B486668142202FB030001210C3000F05A
:1091700087FA63682E600C336B600123A3720020B2
:1091800002B070BD48F20460FAE748F20960F7E700
:10919000442E002013B50446A8B10DF10601FFF7D7
:1091A00015FB98B1BDF806200B4B142101FB0233CF
:1091B000DA6872B1A27A62B1DA680020013ADA6044
:1091C000A07202B010BD48F20460FAE748F20960EC
:1091D000F7E748F20560F4E7442E0020022300225E
:1091E000FFF70EBE18B103230022FFF709BE48F2B5
:1091F00004607047114B1B7813B50446ABB14FF6B2
:10920000FF73984214D001A8FFF75CFA98B10523C8
:10921000037001230371C48001A9094800F047F9D4
:10922000FFF7E0FD002002B010BD48F20160FAE750
:1092300048F20360F7E748F20760F4E7202E0020C9
:10924000F82E00200F4B1B7807B5A3B101A8FFF73C
:1092500039FA98B10623037001A90B4800F027F9E9
:109260000A4B1A780AB101221A73FFF7BBFD0020DE
:1092700003B05DF804FB48F20160F9E748F20760CB
:10928000F6E700BF202E0020F82E0020282E002018
:1092900007B5ADF80600ADF804100DF1060001A900
:1092A000FFF7E6FA03B05DF804FB07B51346ADF827
:1092B00006000A4600200DF10601FFF7D9FA03B0B7
:1092C0005DF804FB07B51346ADF806000A460DF13C
:1092D00006000021FFF7CCFA03B05DF804FB20B1D3
:1092E00019B103680B600020704748F204607047B2
:1092F0002DE9F84F3C4B1B780446002B6DD000281D
:109300006ED0DFF8E8901222002108F0B0FF0323AE
:1093100023804FF0000A4F4614264FF00108D9F879
:109320000410B9F80AB0B9F808500846FFF7D8F9A0
:10933000032808BF2388628804BF03F1FF3323801A
:1093400006FB0A735D44DB681344638023899B44F6
:109350006389A4F808B0ADB22B446381C5F580657C
:10936000A389ADB2AB4238BFA58101F1080501F573
:109370008051A94229D92B68013326D02846FFF70E
:10938000DFF801280AD0022815D00028F1D1A388DF
:109390000133A3800AE04FF0010AC0E7E3880133FC
:1093A000E380E3896A8803331344E3816B880333E2
:1093B00005EB8305DDE7E38884F810804D1BE18928
:1093C000013301EBA501E380E18109F11409BAF150
:1093D000000FE0D00020BDE8F88F48F20160FAE706
:1093E00048F20460F7E700BF202E0020442E002042
:1093F00010B561B1B2FBF3F403FB1424A4B244B979
:10940000C0E9001484608281C381204610BD0E2013
:10941000FCE70920FAE782B050E8022FC188B2EBDE
:10942000324F4FF0000317BF92B241EA014142EAC6
:10943000014104E04268B2EB324F08BF012340E82B
:109440000212002AE8D18DF807309DF80730002B72
:109450000CBF1120002002B0704737B550E8013F23
:109460009DB2C48925448489A54228BF2D1B048947
:10947000A54202BFBFF32F8F002207E0C5EA030514
:1094800040E80154002CE9D14FF001028DF803208F
:109490000193019A0A609DF8031001F0FF0321B1C6
:1094A000006810FA82F003B030BD1846FBE70A8866
:1094B0004B889A4209D150E8012FC2EA024240E8A3
:1094C0000123002BF7D1012070470020704737B5EA
:1094D00050E8023F1FFAA3F5C488A54202BFBFF3BC
:1094E0002F8F00220DE0C48925448489A54228BF1E
:1094F0002D1BC3EA054540E80254002CE8D14FF08B
:1095000001028DF803200193019A0A609DF803106F
:1095100001F0FF0321B1006800EB124003B030BD41
:109520001846FBE70A884B889A4209D150E8022F77
:10953000C2EA224240E80223002BF7D10120704703
:109540000020704701F01F024B090121914000EB00
:10955000830000F065B84B0910B501F01F0401212C
:10956000A14000EB830000F04FF8E04000F0010064
:1095700010BD01F01F0301229A404B0900EB83004C
:10958000D14300F065B84B0901F01F0150F82300EA
:10959000C84000F0010070472DE9F0474F1E7F09D9
:1095A00080460E460137002558F8254008EB85090E
:1095B000E44394FAA4F4B4FA84F44FEA451A202C54
:1095C00006D10135AF42EFD834462046BDE8F087DA
:1095D0005444A642F5D921464046FFF7BCFF002877
:1095E000F3D0D9F80040E44394FAA4F4B4FA84F434
:1095F000E5E710B5034653E8000F0A4643E80024A8
:1096000094F0000FF7D110BD10B5034653E8000FDA
:1096100040EA010243E8002494F0000FF6D110BDA7
:1096200010B5034653E8002F42EA010043E8000466
:1096300094F0000FF6D110BD10B5034653E8000FAB
:1096400000EA010243E8002494F0000FF6D110BDB7
:1096500010B5034653E8002F02EA010043E8000476
:1096600094F0000FF6D110BD10B5034653E8000F7B
:1096700000EB010243E8002494F0000FF6D110BD86
:1096800010B5034653E8002F02EB010043E8000445
:1096900094F0000FF6D110BD10B5034653E8002F2B
:1096A000A2EB010043E8000494F0000FF6D110BDD6
:1096B0000121FFF7A9BF0121FFF7B2BF0021FFF78A
:1096C000BBBF10B590B1D0E9012301689B1ADBB292
:1096D0000A60013BDBB2FF2B026802D1002010714F
:1096E00010BD11684C1C14600B70F2E70E20F7E7F8
:1096F00037B5054600240DF107008DF80740FEF749
:1097000097FD2A686B68116899420ED9481E10604F
:1097100011F8013CEC68298A01FB0344AB6811791C
:109720001B1ADBB2994238BF13719DF80700FEF790
:10973000A3FD204603B030BD37B5054600230DF12B
:1097400007000C468DF80730FEF772FD2A68136893
:10975000591C1160E968641A298AB4FBF1F41C7081
:109760009DF80700FEF788FD03B030BD826810B594
:1097700004462AB143690168006998470023A36041
:1097800010BD0EB403B5039921B104AB01AA019336
:1097900000F076F802B05DF804EB03B070470A29D8
:1097A00038B504460D4602D10D21FFF7F8FFA36836
:1097B0002268591CA160D554D4E901329A4204D3DD
:1097C0002046BDE83840FFF7D1BF38BD2DE9F84F3E
:1097D0009846DDE90A43154682460F460A464FF091
:1097E0000109AA420FD2C14538BFC14613F0010B8F
:1097F00001D16CB900240126B8F1010F1BD908F181
:10980000FF386E43F8E709F10109B2FBF5F2E8E72A
:109810009B070ED5B8F1000F0CBF30262026A145BE
:10982000E9D2013C31465046FFF7B9FF002CF6D192
:10983000E0E72026F3E7B7FBF6F39D42E1D9DFF836
:109840003C80B7FBF6F3504618F8031006FB13777D
:10985000FFF7A5FF3346AB42B6FBF5F6F1D2BBF1FD
:10986000000F02D00CB1A14501D3BDE8F88F202133
:109870005046013CFFF793FFF4E700BFAC2603001E
:109880002DE9F74F054617468846002900F03E812E
:1098900018F8011B49B92B7B002B00F037812846B3
:1098A00003B0BDE8F04FFFF761BF252940F0B78056
:1098B000002698F800302D2B424608F1010823D0ED
:1098C000302B24D02B2B25D000242A2B02F1010190
:1098D00023D13B681A1D1B683A601C440A46137862
:1098E0002E2B26D101324FF0000A104610F8011B32
:1098F000A1F1300CBCF1090F1DD80A2303FB0A1398
:10990000A3F1300A0246F0E746F00106D1E746F03F
:109910000206CEE746F00406CBE711F8013CA3F1BE
:1099200030000928DBD80A2202FB0434303C0A4606
:10993000CBE74FF0000A12F8011B01F0FB0068288A
:109940009046F8D0782909D86F290CD8632962D0BD
:1099500022D8252963D0582900F0888098F8003053
:10996000002B95D197E770390829F7D801A353F850
:1099700021F000BFE79A02005D9902005D990200A4
:109980007D9A02005D9902005B9A02005D990200D7
:109990005D9902006D9A0200642901D06929DDD128
:1099A0003A68D2F80090111D89EAE9723960A2EB99
:1099B000E9724FF0010B092A35DCD34538BFD34695
:1099C0002CB1B9F1000F01DB720700D5013CB307E0
:1099D00002D5BAF1000F03D0F00701D44CBB00242C
:1099E000B9F1000F2DDAC9F100092D212846FFF742
:1099F000D6FE06F00302022A04D1BAF1000F01D10B
:109A00001CBB0024CDE9004653460A22494628469D
:109A1000FFF7DCFEA2E73B681A1D19783A6028467A
:109A2000FFF7BDFE9AE70A230BF1010BB2FBF3F23D
:109A3000C1E7A345D4D220212846013CFFF7AFFE61
:109A4000CCE77107D5D52B21D0E7A345DAD2302159
:109A50002846013CFFF7A3FED2E73968CDE900466E
:109A60000A1D3A6053460A220968D0E739680A1D80
:109A70003A60CDE9004653461022F5E73B681A1DCF
:109A80003A6016F00106D3F8009024D1B9F1000F26
:109A900003D0484608F040FC0646B4421DD809F100
:109AA000FF3919F8011F00293FF458AF2846FFF786
:109AB00076FEF6E728460136FFF771FE19F8061024
:109AC0000029F7D1A642BFF449AF20212846013C26
:109AD000FFF765FEF6E70026F0E720212846013C67
:109AE000FFF75DFED9E73B681A1D3A603021284632
:109AF0001C68FFF754FE78212846FFF750FE00222D
:109B00000823CDE900322146102280E703B0BDE8EA
:109B1000F08F00BF13B50B46114680B9104B1148AA
:109B2000114AC01A0E23C0080093104B00041049BC
:109B300040F00100FDF75BFF0E2002B010BD4BB9F5
:109B4000074B08480B4AC01AC0080E2300930004B4
:109B5000064BECE703601B6802B0BDE810401847F5
:109B60001424030074240300BC2603007828030097
:109B7000C1260300F02603002DE9F743DDF8288015
:109B800088B93E4B3E483F4AC01AC0080E243E4B9F
:109B9000009400043D4940F00100FDF728FF2046F5
:109BA00003B0BDE8F0834AB9344B3548384AC01A8F
:109BB000C0080E24344B00940004EBE7D0F800E01A
:109BC000BEF1000F09D12D4B2D48324AC01AC008F2
:109BD00008242D4B00940004DCE74BB9274B2848A0
:109BE0002D4AC01AC0080924274B00940004D1E76D
:109BF0004568D5F80490B3FBF9F509FB15354DB16F
:109C00001E4B1F48254AC01AC00809241E4B009449
:109C10000004BFE78D0709D0184B1948204AC01A25
:109C2000C0081024184B00940004B3E712F0030F8F
:109C300009D0124B12481B4AC01AC0081024124BFC
:109C400000940004A6E7C568A9420DD34D1EEC1888
:109C50000569AC4208D8CDF82880DEF80C40A4464F
:109C600003B0BDE8F0436047044B05480E4AC01AF4
:109C7000C0081024044B009400048BE71424030054
:109C800074240300BC26030065280300C1260300DA
:109C90003E270300EA260300FD26030044270300B5
:109CA0006E27030086270300A9270300F7B580B9B4
:109CB0002A4B2B482B4AC01AC0080E242A4B00946A
:109CC00000042A4940F00100FDF791FE204603B050
:109CD000F0BDD0F800C0BCF1000F09D11F4B2048E7
:109CE000234AC01AC00808241F4B00940004E8E768
:109CF0004AB91A4B1A481F4AC01AC00809241A4BFD
:109D000000940004DDE74568D5F800E00EF1FF356A
:109D10000D4209D0114B1248174AC01AC00810242E
:109D2000114B00940004CCE7C568A9420CD34D1E2A
:109D30000EFB02540569AC4206D8DCF81040A4467C
:109D400003B0BDE8F0406047044B05480B4AC01A19
:109D5000C0081024044B00940004B2E7142403004C
:109D600074240300BC26030052280300C12603000C
:109D7000EA260300FD260300D0270300F627030090
:109D800029DF704728DF704770B503689E6886B08A
:109D900004460D466EB114220021684608F067FAA9
:109DA000A3680593237901952BB1012B0DD068464B
:109DB000B04706B070BD01238DF8003023690293CF
:109DC000E368039363690493F1E702238DF800309D
:109DD000E3681B030293F5E70846704700207047CD
:109DE000024B187A003818BF01207047C02F00209E
:109DF000034B187A0122B0FA80F05A744009704778
:109E0000C02F002008B510461A4608F007FA0020B7
:109E100008BD000008B514220021044808F027FA04
:109E20000348FFF7F8FA002008BD00BFC02F00204C
:109E3000B02F002010B5094C094B43602046FFF7B6
:109E400037FC40B907F00EFB064920741C23064876
:109E50008C22FFF7CDFA002010BD00BFC02F0020DC
:109E60008C280300242F0020B02F002038B5234D6C
:109E7000234C2B7A3BB923492348FFF728FB20606A
:109E800008B9686038BD022324682B72237973B146
:109E9000012B24D020460321FFF776FF00232B72ED
:109EA0006B6018491848BDE83840FFF73BBBD4E960
:109EB0000523D21AB2F5805FD4E9031028BF4FF40E
:109EC00080529208012A38BF012219441844FFF732
:109ED00057FF50B11128DDD101232B72D2E7D4E90D
:109EE00003031844FFF74EFFF3E72B7C002BC9D187
:109EF000BDE83840022000F009B800BFC02F0020A4
:109F0000D82F0020D42F0020B02F002038B5234CAC
:109F1000237A002B41D0022B09D1032830D0204BCB
:109F200000221B68E2601A793AB1012A22D0637CD0
:109F30007BBBBDE83840FFF799BFD3E905128D1A06
:109F4000B5F5805F94BF521902F580529A61914233
:109F5000EDD102284FF0000308BF19462372104BC1
:109F600018BF0D211868FFF70FFF0E490E48FFF7C5
:109F7000D9FADCE71A6901321A615B699A42E7E7AC
:109F8000E3680133082B01D8E360D0E70023E360E6
:109F9000DFE7BDE8384007F055BA38BDC02F0020D4
:109FA000D82F0020D42F0020B02F0020831E012B9B
:109FB00001D8FFF7ABBF704700F0FD03012B08D1BC
:109FC000044B00225A74421E504250411874FFF74D
:109FD0004DBF7047C02F002010B5064C201DFFF765
:109FE00067FB28B9637C1BB9BDE81040FFF73EBF93
:109FF00010BD00BFC02F00202DE9F34180460D4663
:10A00000104801A916461F46FFF727FA0446B0B1CB
:10A0100018220021043008F02AF92D0B01232371A6
:10A0200001A90848C4F80080A760E5606661FFF7F1
:10A030003EFAFFF7D1FF002002B0BDE8F081042016
:10A04000FAE700BFB02F00202DE9F34180460F460C
:10A050000F4801A916461D46FFF7FFF90446A8B1AF
:10A0600018220021043008F002F9089BA36001A91E
:10A07000C4E903670648C4F800806561FFF717FA72
:10A08000FFF7AAFF002002B0BDE8F0810420FAE744
:10A09000B02F00202DE9F84FB0F806A04579D2F88E
:10A0A00000B09DF828900AFB05F5043D88460BEBAF
:10A0B0000301A94203F1040488BFA5EB030BB4FB21
:10A0C000FAF607460AFB1644C2F800B04EB9AAEBEE
:10A0D00004055D4528BF5D46BBF1000F04D1BDE816
:10A0E000F88F3F68013EF1E7043408EB06003C447A
:10A0F0002A46B9F1000F0DD02146ABEB050B08F055
:10A100008DF8DA452E443F6855464FF0000428BFCD
:10A110005D46E1E701462046EFE7FFF7D2BAF8B522
:10A1200046790146721E0546002393422D6803D3EB
:10A130000024A64202D8F8BD0133F6E70F6828468E
:10A14000FFF7FAFA01343946F3E72DE9F843068AB6
:10A15000CD1C0746FFF7CCFA043E35440446B5FB58
:10A16000F6F5F0B14FF48073EDB28380C680013D07
:10A17000076081464FF00008A84512D23846FFF725
:10A18000B7FA064648B163790133637108F10108F3
:10A19000C9F8000007608146EEE72046FFF7BFFFE1
:10A1A00034462046BDE8F88301210430FFF768BA41
:10A1B00010B5012104460430FFF76EFAC0B220B991
:10A1C0002046BDE81040FFF7AABF10BD1FB503929F
:10A1D0000022009203AAFFF75DFF05B05DF804FBC3
:10A1E0001FB503920122009203AAFFF753FF05B0A7
:10A1F0005DF804FB33DF704741DF704738B5194C19
:10A20000194D6368BBB9FDF72FFCFDF78FFA0028E5
:10A21000FBD1154B1B78023B012B14D8BFF34F8F9A
:10A220001249134BCA6802F4E0621343CB60BFF3D8
:10A230004F8F00BFFDE71B682878984788B12046FC
:10A2400000F095F8DDE707F00DF908B1FFF7D2FF50
:10A250004FF080430122C3F80025BFF34F8F20BF8A
:10A26000FDE738BDDC2F0020E42F002000ED00E0EA
:10A270000400FA05064B10B500241C70054B1C6049
:10A28000BFF35F8F0449054800F067F8204610BD12
:10A29000E52F0020E82F0020C4280300DC2F002039
:10A2A00007B500230DF107008DF80730FDF7C0FF5B
:10A2B000F1EE103A23F09F03E1EE103ABFF35F8F07
:10A2C0000A4B4022C3F884219DF80700FDF7D4FF14
:10A2D00007F0C8F820B103B05DF804EBFFF78CBFBE
:10A2E00020BF40BF20BF03B05DF804FB00E100E0E9
:10A2F00038B5114D044601212846FFF77AF9BFF31E
:10A300005F8F38B9042C0AD00C4B1A781AB1BFF3FE
:10A310005F8F286038BD0A4A147001221A7000212C
:10A32000084A0846FDF740FD08B1FDF7D5FCBFF32C
:10A330005F8F00232B60EDE7E82F0020E52F002042
:10A34000E42F0020FDA10200836800225A60C3E9C7
:10A3500004229A60DA601A6070470B684A684360AA
:10A36000934208BF0023016008BF43607047436801
:10A3700043B10268916852680B449342436004BF42
:10A3800000234360704770B5446806460D46206858
:10A3900018B1B3682946984718B923682B6025601F
:10A3A00070BD2468F3E74368186808B102681A6052
:10A3B00070474368186870474368186800B9704769
:10A3C000884203D102681A60012070470346006882
:10A3D000F4E7000010B50D49A1F59472914201D83F
:10A3E00000200FE08C1AE30F03EBE4035B1002EB99
:10A3F000C30452F83330834205D802D204F1080274
:10A40000ECE7606810BD2146E8E700BFD02D0300EF
:10A4100008B5FFF7DFFF024B002808BF184608BD4C
:10A42000932C030003684A68896810B5D41A8C42DB
:10A430008BBF5B1800230360026098BF037110BDDF
:10A4400003680A68896810B59C1A8C428BBF5B1A36
:10A4500001230360026098BF037110BD037910B53A
:10A4600004461BB1FFF7DEFF206810BDFFF7E8FFD1
:10A47000FAE70023435082B043580193019B02B096
:10A48000704700002148D0F8103110B55BB14FF48F
:10A490008871FFF7EEFF1E4B5A79510703D51B68F1
:10A4A0000BB1012098471948D0F814315BB14FF433
:10A4B0008A71FFF7DEFF164B5A79120703D51B6826
:10A4C0000BB1022098471148D0F81C315BB14FF412
:10A4D0008E71FFF7CEFF0E4B587910F0100002D1AD
:10A4E0001B6803B198470948D0F8043163B14FF4B1
:10A4F0008271FFF7BEFF064B01221A711B681BB168
:10A50000BDE810400320184710BD00BF00C0014047
:10A51000EC2F00204FF08053D3F830210D2A55D175
:10A520004FF080410022C1F80C21C1F81021C1F880
:10A530003825454AD3F80404C2F82005D3F80804A6
:10A54000C2F82405D3F80C04C2F82805D3F8100487
:10A55000C2F82C05D3F81404C2F83005D3F8180457
:10A56000C2F83405D3F81C04C2F84005D3F820041F
:10A57000C2F84405D3F82404C2F84805D3F82804E7
:10A58000C2F84C05D3F82C04C2F85005D3F83004B7
:10A59000C2F85405D3F83404C2F86005D3F838047F
:10A5A000C2F86405D3F83C04C2F86805D3F8400447
:10A5B000C2F86C05D3F84434C2F87035D1F80034D1
:10A5C000DA0744BF6FF00103C1F800341F4AD2F824
:10A5D000883043F47003C2F88830BFF34F8FBFF365
:10A5E0006F8F4FF01023D3F80C32DB0728D5184BB0
:10A5F0000122C3F80425D3F80024002AFBD04FF031
:10A600001022D2F80C3223F00103C2F80C32104BA6
:10A61000D3F80024002AFBD00022C3F80425D3F885
:10A620000024002AFBD0BFF34F8F0849094BCA68AA
:10A6300002F4E0621343CB60BFF34F8F00BFFDE72E
:10A64000054B064A1A60704700C0004000ED00E06C
:10A6500000E001400400FA05842200200090D003AD
:10A6600038B5074C051E04F1080318BF1C462368C3
:10A670002BB11A6822605B6828469847F7E738BD17
:10A68000FC2F002020B9054B01225A70FFF7E8BFCC
:10A69000012802D1014A9070F8E77047F42F00209A
:10A6A00020B9034B01225A70FFF7DABF704700BF91
:10A6B000F42F002038B50E4C2378B3B90D486360F1
:10A6C000A3602361E36000F075F8054606F0CAFE5A
:10A6D00008B900F07DF801232370074BD3F800344C
:10A6E0000BB10123A370284638BD8525F5E700BFCF
:10A6F000F42F002085A602000000014037B50D4C64
:10A7000000230DF107008DF80730FDF791FDE36898
:10A71000013BE360E36833B9074BD3F8005415B944
:10A7200000F06CF8A5709DF80700FDF7A5FD03B0DB
:10A7300030BD00BFF42F002000000140012813B5F8
:10A740000CD0032820D038B9134B0122C3F8802045
:10A75000BFF34F8FBFF36F8F02B010BD0F4C0023BC
:10A760000DF107008DF80730FDF762FD23780BB976
:10A77000FFF7A0FFE3689DF807000133E3600123C2
:10A78000A370FDF779FDE7E700F022F802B0BDE81D
:10A790001040FFF7B3BF00BF00E100E0F42F00203E
:10A7A00000F18040002382B0036003680193019BA5
:10A7B00002B07047054A13792BB90121106053711B
:10A7C0001171184670478520704700BF083000207F
:10A7D000084B1A68D20704D4C02283F80023012250
:10A7E0001A604FF080430022C3F81825024B012263
:10A7F0001A70704700E100E0103000204FF08042F6
:10A8000008B50223C2F808334FF48270FFF7C8FF7F
:10A810000123D360D2F81834DB03FBD408BD00F168
:10A82000804000F5C040002382B0036003680193BC
:10A83000019B02B07047000003681F2B83BF03F029
:10A840001F03036001484FF0A04070470003005011
:10A8500007B5019001A8FFF7EFFF019B00EB830014
:10A86000D0F8003723F44033C0F80037D0F8003771
:10A8700043EA0141C0F8001703B05DF804FB000093
:10A880002DE9FF470024CDE90244584D4FF4807272
:10A89000012102F1804303F5C04390B21B68012BF4
:10A8A00006D1D5F804330B4202D0FFF7B8FF0C43B2
:10A8B0000432B2F5907F4FEA4101EAD14B4BD3F815
:10A8C0007C31012B11D14FF4BE70FFF7A8FF4FF080
:10A8D000A04344F00044D3F820250292C3F8202579
:10A8E000D3F820280392C3F82028E3B2D3B1404F15
:10A8F00000250126344210D0AB0003F1804303F55C
:10A90000C043D3F81005D3F8101557F8253023B1FC
:10A91000C1F30141C0F3052098470135082D4FEAE6
:10A920004606E7D1002C59DA314D324C324E4FF009
:10A930000008012716F9013B5A1C3CD0C3F3C201A1
:10A9400004A801445FFA83F911F8081C03F03F02E0
:10A9500003F0070307FA03F319422CD001A8019270
:10A96000FFF76AFF019B03F5E07350F82330C3F350
:10A97000014ABAF1020F0CBF032102211046FFF772
:10A9800067FF01A80192FFF757FF019B07FA03F346
:10A99000C0F82035AB1893F9303055F8233053B157
:10A9A0004FEA9911032904D0BAF1020F19D10129F4
:10A9B00001D11046984708F10108B8F1040FB9D148
:10A9C0004FF0A043D3F820250292C3F82025D4F8F5
:10A9D00020350393C4F820351343A7D104B0BDE854
:10A9E000F087BAF1030FE6D10229E1E700600040E9
:10A9F00014300020000300506E300020014B1B6813
:10AA0000184700BF7C300020032811D8012A0AD142
:10AA100001290FD100F10E02D2B20D4B00EB400024
:10AA20001A54002070470129F7D0022904D049B1F7
:10AA3000072070470022F8E7054B00EB4000184460
:10AA40004270EEE7024B00EB400018448270E8E7EA
:10AA50008430002008B5012202210020FFF7D4FF36
:10AA600008B1072810D1072202210120FFF7CCFFEF
:10AA700008B1072808D100210A220846FFF7C4FFC1
:10AA800010B1072808BF002008BD00000388102B64
:10AA900010B502D0112B1ED010BD1A4C2168B1B9CF
:10AAA00001220846FFF7B0FF08B1072824D107228A
:10AAB00002210120FFF7A8FF08B107281CD10422BA
:10AAC00002210020FFF7A0FF08B1072814D1236856
:10AAD00001332360E0E70B4A1368013B1360002B4E
:10AAE000DAD1FFF7B7FF0028D6D0074B1B68002B41
:10AAF000D2D0BDE810401847034B1B68002BE6D0AE
:10AB00009847E4E7943000209030002008B5054ACB
:10AB10000A210820FDF724F918B1BDE80840FDF727
:10AB2000DBB808BD9830002008B500F059FC00F0F3
:10AB3000BBF900F062FC00F0D5FBFFF7E7FF00F087
:10AB4000D1F900F0F9F900F00BFC00F003FA00F085
:10AB5000B1FA00F079FB00F0DDFB0E4B0E480F4917
:10AB6000C01AC008000440F00300FCF729FF0C489D
:10AB700007F028F907F05CF9002000F08FF900F0E9
:10AB800045FCFDF775F9FCF7D1FD0028F9D1FFF779
:10AB900087FBF6E71424030044240300F62D03008A
:10ABA0006C24002076DF704778DF70477ADF7047CB
:10ABB0007CDF70478FDF70470B78052B02D0062BA8
:10ABC00004D07047034B01221A707047014B0022DA
:10ABD000FAE700BF6C3600200448054B0549C01A4F
:10ABE000C008000440F00300FCF7EABE4424030060
:10ABF00014240300142E0300FDF76EB808B50C49A9
:10AC00000C48FFF72BFC4FF6FE72C1B20A4805F064
:10AC100051FC132807D943F20143984207D0BDE8FD
:10AC20000840FDF759B8054BC340DB07F7D508BD11
:10AC3000E0350020F0350020CC35002001810A00ED
:10AC40007FB508220346019201A94FF6FF7202A8C0
:10AC500003F046FF08B1FDF73FF8019902A803F0A1
:10AC600017FF08B1FDF738F807B05DF804FB0000E6
:10AC700000B5B3B0082810D8DFE800F03505121988
:10AC800020272E3A56003448344B3549C01AC008A4
:10AC9000000440F00300FCF793FE33B05DF804FBC2
:10ACA0002D482E4B2F49C01AC0080004F1E72A484E
:10ACB0002A4B2D49C01AC0080004EAE72648274B52
:10ACC0002A49C01AC0080004E3E72348234B284957
:10ACD000C01AC0080004DCE71F48204B2549C01AF1
:10ACE000C0080004D5E733B05DF804EB00F0AABB60
:10ACF0000823CDE9023312AA03AB02A904A803F08A
:10AD0000AFFE08B1FCF7E8FF0220FFF799FF039BB5
:10AD10000093029A184812AB04A901F05AFA0028CD
:10AD2000BBD0FCF7D9FFB8E7144B18884FF6FF7378
:10AD30009842B2D012A903F07DFF0528ADD008B12A
:10AD4000FCF7CAFF0620FFF77BFF0DF159010A4807
:10AD500001F02CFAE3E700BF4424030014240300AD
:10AD6000362E0300402E0300562E0300682E0300EB
:10AD70007A2E03009B2E030098310020903600208D
:10AD800007F070B87FB5082301934FF6FF720123D7
:10AD900001A902A803F0A4FE08B1FCF79DFF0B4B2C
:10ADA0000B48019A0B49C01AC008000440F0030088
:10ADB00008230132FCF711FE019902A803F046FEB8
:10ADC00008B1FCF789FF07B05DF804FB1424030009
:10ADD00044240300BC2E030008B5FFF7D3FF054849
:10ADE000032101F09FF818B1BDE80840FCF774BFDB
:10ADF00008BD00BF9831002010B5044604F0C6FB22
:10AE0000204604F0A1F92378082B0BD00C2B05D099
:10AE1000022B02D10D4BA2881A8010BDBDE8104054
:10AE2000FFF7DABF237CDB07F7D5237A072BF4D1B2
:10AE3000074B08480849C01AC008000440F0030046
:10AE4000FCF7BEFDBDE81040FFF79CBF9036002028
:10AE50001424030044240300E92E0300FCF73CBF44
:10AE6000FCF73ABFFCF738BF08B50948094B0A4957
:10AE7000C01AC008000440F00300FCF7A1FD03F075
:10AE8000EFFE18B1BDE80840FCF726BF08BD00BFC3
:10AE900044240300142403001D2F030008B1FFF70E
:10AEA000E3BFFFF799BF000008B5FDF797F808B1B9
:10AEB000FCF712FF074A08480121FDF7C1F8074ACD
:10AEC00007480121FDF7BCF818B1BDE80840FCF7C0
:10AED00003BF08BDFDAB0200682F0300D9AB020021
:10AEE0006C2F03001FB5112312498DF804300F2277
:10AEF00001A8FFF75DFE08B1FCF7EEFE40F2C1309D
:10AF0000FFF752FE08B1FCF7E7FE0623ADF8083064
:10AF10001822ADF80C3002A82B23ADF80A20ADF8AA
:10AF20000E30FFF743FE08B1FCF7D6FE05B05DF822
:10AF300004FB00BF2A2F030008B50548002102F0DA
:10AF4000F5FD18B1BDE80840FCF7C6BE08BD00BF5E
:10AF5000383600202DE9F04794B04B4B4B48029314
:10AF600002A902F0E3FE08B1FCF7B6FE41F61513A4
:10AF7000ADF802304EF6EE630224ADF80430402204
:10AF80000123002102A8ADF806308DF8004007F03B
:10AF90006EF902A83E4901F03DFC02A8CDF840D070
:10AFA0008DF8444005F016FB08B1FCF795FE00242F
:10AFB0000123CDE902448DF80C3003F102336133F3
:10AFC0003448049402A9059305F000FA08B1FCF78F
:10AFD00083FE314DDFF8D880304E2C60012740F2DF
:10AFE00002296C60C8F800403460C8F804407460FE
:10AFF000082302244FF0030A0021402204A82B80DA
:10B00000EF70A5F80490AC71A8F8007088F80340C0
:10B01000A8F80490348086F803A0A6F8049007F0FE
:10B0200026F91F4B02931F4B03934C23ADF82C3092
:10B030001D4B0A931D488DF8107040F2011302A9B0
:10B040008DF8127005958DF81870CDF81C808DF86C
:10B0500020700996ADF838308DF83BA08DF834405B
:10B060008DF83C408DF84A40ADF84C908DF84E403C
:10B07000ADF844908DF8464005F098FE08B1FCF715
:10B080002BFE14B0BDE8F08765AE020094360020B8
:10B090003A2F0300CC350020903100208831002069
:10B0A000B9AB0200F9AB020020240020902200205E
:10B0B000A036002000B589B01822002101A807F0B1
:10B0C000D6F84FF4F0234FF4A032CDE90223032346
:10B0D0008DF8103001A8054B079301F08BF908B1EA
:10B0E000FCF7FAFD09B05DF804FB00BF5DAE02009D
:10B0F00030B4084D084B2D781B880C4611461DB105
:10B10000224630BC06F08FB802932946234630BC55
:10B1100006F02AB86C3600208C2200207FB5194C2E
:10B1200094F83E30B3B1B8B194F83C500C235D4371
:10B1300066190DF10E030093D6E90110635D727874
:10B14000FFF7D6FF132807D1BDF80E3072789A4268
:10B1500002D3635504B070BD94F83C300C2202FB5E
:10B16000034200215160013394F83E20DBB2013AE2
:10B17000052B84F83C3084F83E2008BF84F83C104E
:10B18000E8E700BF4831002003883B2B13B5044695
:10B1900049D007D8112B26D0212B36D0102B0BD01D
:10B1A00002B010BD562B3ED0572BF9D1012002B072
:10B1B000BDE81040FFF7B2BF1D4B1E481E49C01A24
:10B1C000C008000440F00300FCF7FAFB1B4BA18809
:10B1D0001B48198002F0BCFD0028E1D002B0BDE898
:10B1E0001040FCF779BD124B12481649C01AC0082E
:10B1F000000440F00300FCF7E3FB0020FFF78EFFA4
:10B200000E4B4FF6FF721A80CAE7002380888DF834
:10B21000043001A98DF80530FFF7CCFC0028BFD021
:10B22000FCF75AFDBCE7A0881321FFF7BBFCD3E76E
:10B2300014240300442403004E2F03008C2200201A
:10B2400094360020582F0300054B00229A8783F87C
:10B250003E205A601A61DA619A625A63704700BFF1
:10B2600048310020F0B51D4F85B084B20DF10E03BA
:10B27000009305460023224638460E46FFF738FF66
:10B2800013281FD1BDF80EC0644519D3144B93F891
:10B290003E40062C14D093F83D200C21514301323E
:10B2A000D2B25818052AC0E9016704F1010408BFA9
:10B2B000002203F801C0457083F83E4083F83D202A
:10B2C00005B0F0BD30F00802FAD01128F8D043F2F2
:10B2D00001429042F4D0FCF7FFFCF1E790220020FD
:10B2E0004831002007B506F03FF808B1FCF7F4FC40
:10B2F000002301A90120019306F010F908B1FCF721
:10B30000EBFC01A806F0A8F908B1FCF7E5FC03B0D6
:10B310005DF804FB07B503F0E7FA08B1FCF7DCFCC5
:10B3200031238DF8003007238DF8013010238DF87C
:10B330000230684603238DF803308DF8043003F0A3
:10B340006DFB08B1FCF7C8FC044803F04FFB08B1E3
:10B35000FCF7C2FC03B05DF804FB00BFF9AD0200CE
:10B3600000B5ADB0A422002101A806F080FF0223A1
:10B370008DF8043040F20163154AADF80630012320
:10B38000ADF8143006928DF87D308DF87E3028228D
:10B3900040F6B833CDE9232340F201134FF448615E
:10B3A000ADF8803044F25063CDE92513094B2A9360
:10B3B00009480A4B2B9301A900F03FFD08B1FCF7A7
:10B3C0008BFC0548012100F035FD2DB05DF804FB34
:10B3D0008822002071AC02009831002061AE02008A
:10B3E00008B54FF480410020FCF750F908B1FCF794
:10B3F00073FCBDE80840FCF787B808B5FEF73AFFD4
:10B4000018B1BDE80840FCF767BC08BD08B5094A9B
:10B4100009480121FCF714FE08B1FCF75DFC074860
:10B420000022A421FCF717FE18B1BDE80840FCF784
:10B4300053BC08BD81AD0200702F030070360020A0
:10B4400033DF7047F8B5214B214A224C224F0320AD
:10B450001870224B18704FF0A0430125C3F87427D1
:10B46000C3F81427C3F82427C3F83427062214F896
:10B47000013B1F2B86BF03F01F0339464FF0A0414D
:10B4800003F5E07605FA03F341F82600C1F80C3520
:10B49000531E13F0FF02EAD14FF0A04302221048DE
:10B4A000C3F82827FCF7EFFD08B1FCF715FC0D4B9E
:10B4B0000D480E49C01AC008000440F00300FCF714
:10B4C0007FFABDE8F840FFF7BBBF00BFC8360020D9
:10B4D0000C0003009B2F030000030050C93600201E
:10B4E000A83600201424030044240300742F030012
:10B4F0007047000008B50948FCF7C5FD08B1FCF726
:10B50000EBFB064800224FF4F011FCF7A4FD18B144
:10B51000BDE80840FCF7E0BB08BD00BFA83600202E
:10B52000002070477047704700F002B87047000075
:10B53000002310B51A460446013810F8011F99403F
:10B540000833402B42EA0102F7D10848084B094969
:10B550001B1ADB081B0443F00300FCF735FA2146F5
:10B560000820FFF77FFE012010BD00BF1424030058
:10B5700044240300A12F030082B002AB03E90300BF
:10B5800002B0FFF7B7BF3CDF704708B5B12100201C
:10B59000FFF7F9FFBDE808400220FEF7A9BE70479B
:10B5A00030B51448144D0022012410F8013B01323B
:10B5B0001F2B86BF03F01F0329464FF0A041D2B2D4
:10B5C00004FA03F3062AC1F80835EED14FF0A04380
:10B5D0000C22C3F87427C3F81427C3F82427C3F830
:10B5E0003427064A002313609380054A1360938032
:10B5F00030BD00BFD62F030000030050CA36002024
:10B60000D03600202DE9F84F324E334FDFF8D4907A
:10B61000DFF8D4A00625B04647F0010719F8014B22
:10B620001F2C88BF04F01F0404F5E0738CBFD346C1
:10B630004FF0A04B012140F2033201FA04F44BF821
:10B6400023204FF4F060CBF80C45B8470022DFF818
:10B650009CC0134601211CF8010B1F288ABFD64647
:10B660004FF0A04E00F01F00DEF810E52EFA00F0BB
:10B67000C00758BF01FA02F002F1010258BF0343AC
:10B68000042AE8D13278DBB29A421CBF3370134BE4
:10B69000CBF8084518BF012205F1FF3518BF1A7015
:10B6A00015F0FF0506F10106B8D10C4A137833B145
:10B6B000013BDBB213702BB14FF47A40B847012045
:10B6C000BDE8F88F064BD8F800201A60B8F80420BF
:10B6D0009A80F4E7D0360020D02F03008024002089
:10B6E000CA360020D62F030000030050C12F0300EC
:10B6F000014B185C704700BFCA3600200448054B58
:10B700000549C01AC008000440F00300FCF758B90E
:10B710004424030014240300B22F0300024BC0385A
:10B7200033F81000704700BFDC2F0300C1F307237C
:10B73000062202FB0030044BC9B203EB800082B04A
:10B74000405C02B0704700BFDE2F0300044B4FF691
:10B75000ED621A6000229A8001229A71704700BF40
:10B76000D8360020034B18884FF6ED63C31A5842B1
:10B7700058417047D8360020014B9879704700BF78
:10B78000D8360020014B9871704700BFD836002092
:10B79000704708B5FCF77EFC000908BD08B5FFF747
:10B7A000F8FF4FF6FF73B0FBF3F3184480B208BD07
:10B7B0000369C26893429CBF80681B18013B981ABA
:10B7C00070472DE9F843D0E902940546A9EB040837
:10B7D0004068904520440F46144404D906F01EFDED
:10B7E000EC60BDE8F8834246A4EB090406F016FDC0
:10B7F0006868224607EB0801F0E72DE9F843C568C1
:10B800000646894617464FF000083469B3687068E9
:10B81000A54228BFE418013C621B5C1BBC4228BF48
:10B820003C46944228BF144649462844224606F026
:10B83000F5FCB3682544AB4208BF00253F1BA0447C
:10B84000A144F560E1D14046BDE8F88310B5114C44
:10B85000114AA2610223C4E90433104BE361A264DC
:10B860004FF400730E4A0F492362E2640023102252
:10B87000E01DA3626362E362A3656365E36522651D
:10B8800006F028FD0849204606F024FD2023A37178
:10B8900010BD00BFE0360020F62F030068370020FF
:10B8A00058370020FF2F03000330030070B5164BFC
:10B8B000182400FB04451D4404FB00331646DC6AD3
:10B8C000012C0ED0022C18D0E4B92846FFF770FFE7
:10B8D000864204D832462846FFF773FF3446204696
:10B8E00070BD2846FFF764FF8642344628BF0446F1
:10B8F00022462846FFF765FFF1E72846BDE870407D
:10B90000FFF77BBF0024EAE7E0360020FFF79EBF89
:10B910006DDF704779DF70477DDF704764DF704708
:10B920002DE9F04F85B000250E9CBDF83CB0B4F871
:10B9300000A00191074690461E46A9463A884A450E
:10B940000DDC45B12388013BA3EB0A039BB2FF2B1F
:10B950003AD806F80A30002005B0BDE8F08F7A68C2
:10B9600052F82900039000220DF10B0103A8FFF704
:10B97000D5FF0028F0D19DF80B20424521D1228827
:10B98000002D14BF0020022002EB0801014459459C
:10B990001ADC3DB9013292B2019B2280B354228855
:10B9A0000132228022880DF10B01324403A8FFF7F7
:10B9B000B5FF0028D0D121889DF80B200A442280B1
:10B9C000012509F10109B9E70C20C5E72DE9F3418B
:10B9D000089FBDF824801546CDE900780222044670
:10B9E0001E46FFF79DFF50B93346102229462046D8
:10B9F000CDE9087802B0BDE8F041FFF791BF02B091
:10BA0000BDE8F0812DE9F04F00231788138090F8EE
:10BA10002D3085B006460D4614465BB3082F01D87D
:10BA20000C2028E102A8FFF773FF002840F02381D3
:10BA30002388DDF809100822EA54238801339BB2D9
:10BA40001B222380EA54238801339BB2EA18238007
:10BA5000E950BDF80D30938023889DF80820063307
:10BA60009BB212F0FE0218BF01222380EA54238801
:10BA700001332380B378FBB123880433BB42CFD892
:10BA800002A8FFF747FF002840F0F5802388032233
:10BA9000EA54238801339BB219222380EA54238875
:10BAA000BDF8082001339BB2E9182380EA54120A3A
:10BAB0004A70238802332380F2789AB12388D91CF4
:10BAC000B942ADD80221E954238801339BB2012148
:10BAD0002380E95423880B449BB22380EA542388B3
:10BAE0000B4423807268AAB12388D91CB94297D825
:10BAF000022192F90020E954238801339BB20A21E4
:10BB00002380E954238801339BB22380EA5423889D
:10BB1000013323803389002B40F0A180338A5BB14D
:10BB2000CDE900472B460722032106F11000FFF75D
:10BB30004DFF002840F09F80338B5BB1CDE900477B
:10BB40002B461522142106F11800FFF73FFF0028AD
:10BB500040F09180326A002A40F09080D6F824802C
:10BB6000B8F1000F30D0B8F804302188981C8A1C36
:10BB70000244BA423FF654AFFE283FF651AF0333BA
:10BB80006B54238801339BB2FF222380EA5423881D
:10BB900001339BB22380B8F80020EA54E918120A56
:10BBA0004A702088023080B22080B8F804205AB150
:10BBB000D8F8081000296BD0284406F02FFB238802
:10BBC000B8F804201344238096F82C30002B40F062
:10BBD0009880307800284ED03388012B58D02288A6
:10BBE00002F1020CBC453FF61BAF012805D173786A
:10BBF000023313449F42FFF413AF023FBF1ABFB298
:10BC000002A905EB0C00ADF80870FFF785FE90BBAC
:10BC10003178BDF80830022900F0B98072789A4274
:10BC200002D39F4280F0B180012940F0B280974258
:10BC300093B2C0F0AE80ADF808300821BDF80830EE
:10BC4000FE2B3FF6EDAE22880133AB542288013241
:10BC500092B22280A9542288134423800BE0CDE9BC
:10BC600000472B460622022106F10800FFF7AEFE30
:10BC700000283FF453AF05B0BDE8F08FB4F800C022
:10BC80000CF10603BB423FF6CBAE1188052901D863
:10BC90000720F0E76FF4486E01EB0E039BB24FF202
:10BCA0007D3E7345F4D95388052BF1D96FF4486074
:10BCB000181880B27045EBD94FF6FF70814201D061
:10BCC0009942E5D8052305F80C30238801339BB24F
:10BCD00012212380E954238801339BB223801188E9
:10BCE000E954E818090A4170238802339BB2238083
:10BCF0005288EA54E918120A4A70238802332380D2
:10BD00002CE7B36A002BC3D04FF000084FF00C0AA9
:10BD10004FF0160BB16A5FFA88F20AFB02F201EBF0
:10BD20000209B9F80430981CFE283FF679AE208845
:10BD300003332B54238801339BB2238005F803B0CF
:10BD4000238801339BB223808A5AEA54E918120AE5
:10BD50004A702088023080B22080B9F804205AB19D
:10BD6000D9F80810002993D0284406F057FA238800
:10BD7000B9F804201344238096F82C2008F1010818
:10BD80005FFA88F39A42C5D823E7092156E79F4214
:10BD9000FBD2ADF8087050E730B5C8B1F2B100245D
:10BDA000651C8D4206DA1588A54212D805196D78F2
:10BDB0009D420ED1A14211D9005D48B1013880B237
:10BDC00030B10234A3B210FA84F4A14206DB13802E
:10BDD00030BD055D01352C44A4B2E1E70020F7E752
:10BDE00013B513460022ADF806200DF106020446F5
:10BDF000FFF7D2FF10B1BDF80630E01802B010BD59
:10BE000072DF704773DF704738B5012204460D4674
:10BE1000B0F81414D0F81004FFF7E2FF00B1057079
:10BE200004F13C0204F5826104F15400BDE838409D
:10BE3000FFF7E6BF80F830107047F8B504460F46AC
:10BE400000296BD0002869D091F87A301BB191F8A5
:10BE50009830002B64D14FF0000C84F802C007F139
:10BE600078060FCE251D0FC50FCE0FC596E807002B
:10BE700085E8070084F830C0D7F8A4306363D7F8AA
:10BE8000A830A36304F582624FF6FF73C4F826C49A
:10BE9000A4F82434C4F82024C4F829C422780AB9A8
:10BEA00084F8543094F82430002B14BFEE231F2361
:10BEB00004F15501C4F81014A4F8143404F2144227
:10BEC0003846FFF79FFD40BB94F82430002B14BF89
:10BED000EE231F2304F23121C4F81814A4F81C34F3
:10BEE00004F21C4207F13C00FFF78CFDA8B9A369DE
:10BEF000A4F848304FF480730125A4F850306369EA
:10BF00002064014684F83C50636404F13C0204F16F
:10BF10005400FFF775FF00B92570F8BD0E20FCE74F
:10BF20000720FAE7F8B5067804460D46002E00F023
:10BF300006810023C0F82634C0F82934C3888170F4
:10BF400000F226470BB1012903D0E37943B1022D5A
:10BF500006D1636BABB1012284F82D2408209847E9
:10BF600004F2274304F22D4113F8012B12B9994230
:10BF7000FAD116466B1E032B53D8DFE803F0050BEE
:10BF80000F1284F82D34EBE7A3791BB194F8243019
:10BF900003B95EB9E3790BB1002E44D1237A002BAB
:10BFA00043D1637A002B0CBF00250425636BA57079
:10BFB000002B3CD0033D012D39D86279002A36D0C0
:10BFC00094F82E249ABB84F83024012284F82F247C
:10BFD0000720984704F13C0518220021284606F066
:10BFE00046F9E26A0123511E994284F83C3001D996
:10BFF000042A00D1D3B284F8513094F8243043B1EC
:10C00000A26A511E012902D9042A18BF012284F80C
:10C010005220A278042A1CD8DFE802F0780D2336DB
:10C020005A000025C2E70225C0E70325BEE700232A
:10C0300084F82F34CEE7012384F831300023C4E99B
:10C040001073C4F82034022384F83C308023A4F811
:10C050004830A378002B5DD1636B002B6BD100209F
:10C0600068E0002B14BF0723032384F83C302369C6
:10C07000A4F8483000230222C4F82034E36884F88E
:10C08000312027646364E4E762696264A269A4F80A
:10C09000482013B1062384F83C306379B3B194F897
:10C0A0002E349BB994F8303483B1022384F8503095
:10C0B00004212046FFF7A8FE0028CAD1052384F8F2
:10C0C000313004F58263C4F82034C2E70323F6E775
:10C0D000E2696264226AA4F8482013B1062384F856
:10C0E0003C30637983B194F82E346BB994F83034D2
:10C0F00053B1022384F8503004212046FFF784FE18
:10C100000028A6D10623DAE70423D8E7002384F821
:10C1100031309EE7D4F820142A4604F15400FFF78A
:10C120006FFE38B994F8301094F85400FFF76AFEA7
:10C13000002891D0F8BD94F8310098478FE7082087
:10C14000F8E70388112B10B50C460AD0262B1FD018
:10C15000102B05D1C37B012B02D18388A1F8243495
:10C1600010BD0022838881F82E24B1F824249A423D
:10C17000F6D10B79002BF3D101212046FFF7D2FE37
:10C180000028EDD0A36B002BEAD0BDE81040184783
:10C19000037A013B012BE3D8897805230131B1FBF8
:10C1A000F3F303EB8303C91AC9B2E6E790F82D3421
:10C1B0006BB1002380F82D340A68C0F826248A88E1
:10C1C000A0F82A248A7980F82C2418467047082081
:10C1D000704790F82F345BB1009900230A4314BFD5
:10C1E00001221A4680F82F3480F830241846704710
:10C1F0000820704775DF704776DF70477ADF704739
:10C200007BDF7047034B1A8882420CBF1846002020
:10C21000704700BF84390020024B9B6903B1184767
:10C22000704700BF6839002073B585B22846FFF714
:10C23000E9FF044638B3174E027A337B9A420CD298
:10C2400000F10A012846FFF7D5FFF0B111281AD0F6
:10C2500002B0BDE87040FFF7DFBF00230372337CFC
:10C2600043B13B212846FFF7C7FF30F0080301D058
:10C27000FFF7D2FF736933B100228DF80420ADF8C7
:10C28000065001A8984702B070BD237A013323728B
:10C29000F9E700BF6839002037B50B46497A0F4AE5
:10C2A00079B9D2E901141D7A0246002D18BF214642
:10C2B0005868FBF7D0FE78B103B0BDE83040FFF717
:10C2C000ABBF00211972536933B10122ADF80600EA
:10C2D0008DF8042001A8984703B030BD68390020CC
:10C2E0004B8802889A4212D842889A420FD380889B
:10C2F0008B8840F2F311884294BF021A421A9A4284
:10C3000005D80844984234BF00200120704700201F
:10C31000704700000388122B70B5014659D004D82D
:10C32000102B1ED0112B44D070BD502BFCD12F4BA5
:10C33000C288DB899A42F7D1038A022BF4D186881E
:10C340003046FFF75FFF05460028EDD001F11200EF
:10C3500000F056FA38BB6868FBF795FE0028E3D07A
:10C3600009E0C37B012BDFD14FF6FF70FFF74AFFD7
:10C37000054620B90420BDE87040FFF74DBF1C4AB8
:10C380008E880680002303721368C0F80A30536851
:10C39000C0F80E3010310A30FFF7A2FF134B68725D
:10C3A000DB89002BC0D129463046BDE87040FFF73D
:10C3B00073BF8088FFF726FF04460028B4D040688A
:10C3C000FBF761FE08B1FFF727FF4FF6FF732380ED
:10C3D000AAE786883046FFF715FF05460028A3D058
:10C3E00008310A30FFF77CFF6872DCE7683900200B
:10C3F00098390020F8B5064648B305460FCD154FCD
:10C400003C460FC495E8070084E807003068124CEA
:10C410003C60B0B1FFF7F2FEC0B932681368236028
:10C42000536863600D480E4A4FF6FF7303800D4B4F
:10C4300040F8043F0021FBF703FE002818BF03204B
:10C4400004E02046FFF7DCFE0028EBD0F8BD0E200C
:10C45000FCE700BF683900209839002084390020AB
:10C4600029C20200A0390020F7B5174601900E46F8
:10C4700091B1019C6CB100252C46294601A8FDF71D
:10C4800082F818B13946A8B2B04701340135142DED
:10C49000F3D1204603B0F0BD0C46FAE70AB1FDF730
:10C4A00051B8FDF766B873B50191019C06466CB1B1
:10C4B00000252C46294601A8FDF765F818B106EBC2
:10C4C000440301349D800135142DF3D1304634608E
:10C4D00002B070BD2DE9F04703888488103B8CB012
:10C4E00005460A2B21D8DFE803F006402020202053
:10C4F000202020654700DFF8E880D8F80830DB43CB
:10C500000093D8F804106846FDF7A2F8009901A836
:10C51000FFF7C9FF0DF108090027019B9F4207D3D0
:10C52000132C12D90420FBF7D7FB0CB0BDE8F08721
:10C5300039F802AB00260136514608EB8600FDF7BC
:10C5400018F81E2EF7D10137E7E71F482146FCF700
:10C55000F9FF1E482146FCF7F5FFEB7B022BE4D1E7
:10C560001B482146FCF7EEFFDFE7174821460CB0D9
:10C57000BDE8F047FCF7FDBF027A16483F2A4FEAB4
:10C580001215214694BF00220122FFF787FF022DDA
:10C5900094BF0022012210482146FFF77FFF012DA2
:10C5A0000E4894BF0022012221460CB0BDE8F0479E
:10C5B000FFF774BF037A002BB7D1427A0548C2F364
:10C5C000C0022146F1E700BFC8390020C43900206D
:10C5D000CC390020D8390020D4390020D0390020AF
:10C5E000C03900201328014602D80248FCF7CBBF0F
:10C5F00000207047C439002007B50190FFF7F2FF13
:10C60000019930B10448FCF7BEFF002814BF022096
:10C61000012003B05DF804FBCC39002007B5019080
:10C62000FFF7E0FF019930B10448FCF7ACFF0028A8
:10C6300014BF0220012003B05DF804FBC8390020BC
:10C6400007B50190FFF7CEFF019928B1044803B068
:10C650005DF804EBFCF797BF03B05DF804FB00BF87
:10C66000D039002007B50190FFF7BCFF019928B130
:10C67000044803B05DF804EBFCF785BF03B05DF838
:10C6800004FB00BFD439002007B50190FFF7AAFFD3
:10C69000019928B1044803B05DF804EBFCF773BFBF
:10C6A00003B05DF804FB00BFD839002010B5034B80
:10C6B00004465968FFF7F7FE204610BDC039002038
:10C6C00010B50446FFF78EFF002814BF2046142043
:10C6D00010BD000008B518210248FCF75DFFC0B28C
:10C6E00008BD00BFC039002070B50A4E054630466F
:10C6F0000C46FCF748FF58B12846FFF773FF38B1E6
:10C700000734294606EB8400BDE87040FCF73BBFC8
:10C71000002070BDC0390020F8B50B4F05463846E3
:10C720000C461646FCF72FFF60B12846FFF75AFF6C
:10C7300040B107343246294607EB8400BDE8F84093
:10C74000FFF7ACBEF8BD00BFC039002073B50B4D7C
:10C75000019204460E4601462846FCF714FF50B1EC
:10C76000063405EB8404019A6068314602B0BDE8E6
:10C770007040FFF779BE02B070BD00BFC039002025
:10C7800070B50546164608460AB90E2070BD00234E
:10C790001360002DF9D02B68002BF6D0EB8813F036
:10C7A00003040ED1FFF78CFFC0B214280BD02B79F5
:10C7B00083420AD9EA882B6800FB023030602046A9
:10C7C000E4E70720E2E70520E0E70420DEE7AADF50
:10C7D0007047ABDF7047002301380B70042806D880
:10C7E000DFE800F00306080A0C0011230B70704705
:10C7F0002123FBE73123F9E71223F7E72223F5E7AB
:10C80000008800F0010070470B7803704B7843708C
:10C810000220704738B5044608460D4605F07CFDF9
:10C820006560208038BDF0B58B7891B00C46012B47
:10C8300038BF012300278DF80E3005460B88607C39
:10C84000ADF80C306946ADF800708DF80270FFF756
:10C85000C2FFA07C0DF10101FFF7BDFF1646237B4F
:10C86000E27B217D43EAC203227C43EA02139DF866
:10C870000220B94222F0190203F0190314BF022169
:10C880000121134361F342031C22394609A88DF8A4
:10C89000023005F0ECFC637B13F0300F14D00DF187
:10C8A0000901E07CADF808708DF80A70FFF793FF7E
:10C8B00011238DF808309DF80A30012102AA61F396
:10C8C00042038DF80A300E92637B8DF82430A37BEF
:10C8D0008DF825300023CDE90633089303AB04938C
:10C8E000A388ADF81C30A368CDF814D01BB1E28842
:10C8F000ADF818200893A36973B301A90022ADF81D
:10C9000004208A701A88ADF82C205A88ADF82E20A1
:10C910005A680D91187B0A92FFF75DFFA3690DF12C
:10C920000501587BFFF757FFA3699A7A197A41EA04
:10C93000C201DA7A9B7B41EA02119DF80620002BA6
:10C9400001F0190122F0190214BF0223012311433F
:10C9500063F342018DF80610E36903B10C9333468B
:10C9600004AA09A92846FFF732FF11B0F0BDF0B5BF
:10C970000C4689B016461022054600210DEB020038
:10C9800005F075FCA378A079012B38BF01238DF841
:10C990000A3001AF2388ADF80830394602AB039363
:10C9A000FFF719FFE0790DF10501FFF714FFE278B9
:10C9B0006379217A049743EAC203227943EA021396
:10C9C0009DF80620002922F0190203F0190314BF74
:10C9D00002210121134361F342038DF8063063897C
:10C9E000ADF81430A389ADF81630E389ADF81830EE
:10C9F00032462369079303A92846FFF7EAFE09B0E8
:10CA0000F0BDA0DF7047A1DF7047ADDF7047B3DF37
:10CA10007047B4DF704710B50446408800F0F6FD5B
:10CA2000A0802046BDE8104001F058BF30B587B067
:10CA300005460C461422002101A805F018FC072326
:10CA400001A88DF80430ADF806500394FFF7E3FF1A
:10CA500007B030BD70B586B005461422002101A88C
:10CA600005F005FC4FF6FF739D42ADF806503FD030
:10CA7000284600F04DFC1128044633D016D8D8B112
:10CA80000B2820D02046FDF7C3FC1A4E1A49024657
:10CA90001A48361AF608360446F001002B46FAF713
:10CAA0009CFF21462846FFF7C1FF03E043F2020343
:10CAB0009842E7D1002216E00E238DF8043001A839
:10CAC000FFF7A9FFF6E70F238DF8043009480B4B59
:10CAD0000B49C01AC00800042A4640F00200FAF7C9
